S02B0000433A2F55736572732F5072616E69742F4465736B746F702F74656D702F766761546573742F76676111
S21400020080AC250000A6250006FF3F0000F8000091
S214000210E00700001F000000000000004247527385
S21400022000000000000000000000000000000000C9
S21400023000000000000000000000000000000000B9
S21400024000000000000000000000000000000000A9
S2140002500200000000000000000000000000000097
S2140002600000000000000000000000000000000089
S2140002700000000000000000000000000000000079
S2140002800000000000000000000000000000000069
S2140002900000000000000000000000000000000059
S2140011C00000000000000000000000000000E00733
S2140011D0E007E007E007E007E007E00700000000A0
S2140011E000000000000000000000000000000000FA
S2140011F000000000000000000000000000000000EA
S21400120000000000000000000000000000000000D9
S21400121000000000000000000000000000000000C9
S21400144000000000000000000000E007E007E007E2
S214001450E007E007E007E007E007E007E007E0074F
S2140014600000000000000000000000000000000077
S2140014700000000000000000000000000000000067
S2140014800000000000000000000000000000000057
S2140016C00000000000000000E007E007E007E00779
S2140016D0E007E007E007E007E007E007E007E007CD
S2140016E0E00700000000000000000000000000000E
S2140016F000000000000000000000000000000000E5
S21400170000000000000000000000000000000000D4
S21400171000000000000000000000000000000000C4
S21400172000000000000000000000000000000000B4
S214001940000000000000E007E007E007E007E0070F
S214001950E007E007E007E007E007E007E007E0074A
S214001960E007E007000000000000000000000000A4
S2140019700000000000000000000000000000000062
S2140019800000000000000000000000000000000052
S2140019900000000000000000000000000000000042
S2140019A00000000000000000000000000000000032
S214001BC000000000E007E007E007E007E007E007A6
S214001BD0E007E007E007E007E007E007E007E007C8
S214001BE0E007E007E007000000000000000000003B
S214001BF000000000000000000000000000000000E0
S214001C0000000000000000000000000000000000CF
S214001C1000000000000000000000000000000000BF
S214001C2000000000000000000000000000000000AF
S214001E4000000000E007E007E007E007E007E00723
S214001E50E007E007E007E007E007E007E007E00745
S214001E60E007E007E00700000000000000000000B8
S214001E70000000000000000000000000000000005D
S214001E80000000000000000000000000000000004D
S214001E90000000000000000000000000000000003D
S214001EA0000000000000000000000000000000002D
S2140020C00000E007E007E007E007E007E007E007BA
S2140020D0E007E007E007E007E007E007E007E007C3
S2140020E0E007E007E007E00700000000000000004F
S2140020F000000000000000000000000000000000DB
S21400210000000000000000000000000000000000CA
S21400211000000000000000000000000000000000BA
S21400212000000000000000000000000000000000AA
S2140023400000E007E007E007E007E007E007E00737
S214002350E007E007E007E007E007E007E007E00740
S214002360E007E007E007E0070000000000000000CC
S2140023700000000000000000000000000000000058
S2140023800000000000000000000000000000000048
S2140023900000000000000000000000000000000038
S2140023A00000000000000000000000000000000028
S2140025C00000E007E007E007E007E007E007E007B5
S2140025D0E007E007E007E007E007E007E007E007BE
S2140025E0E007E007E007E00700000000000000004A
S2140025F000000000000000000000000000000000D6
S21400260000000000000000000000000000000000C5
S21400261000000000000000000000000000000000B5
S21400262000000000000000000000000000000000A5
S2140028400000E007E007E007E007E007E007E00732
S214002850E007E007E007E007E007E007E007E0073B
S214002860E007E007E007E0070000000000000000C7
S2140028700000000000000000000000000000000053
S2140028800000000000000000000000000000000043
S2140028900000000000000000000000000000000033
S2140028A00000000000000000000000000000000023
S214002AC00000E007E007E007E007E007E007E007B0
S214002AD0E007E007E007E007E007E007E007E007B9
S214002AE0E007E007E007E007000000000000000045
S214002AF000000000000000000000000000000000D1
S214002B0000000000000000000000000000000000C0
S214002B1000000000000000000000000000000000B0
S214002B2000000000000000000000000000000000A0
S214002D400000E007E007E007E007E007E007E0072D
S214002D50E007E007E007E007E007E007E007E00736
S214002D60E007E007E007E0070000000000000000C2
S214002D70000000000000000000000000000000004E
S214002D80000000000000000000000000000000003E
S214002D90000000000000000000000000000000002E
S214002DA0000000000000000000000000000000001E
S214002FC00000E007E007E007E007E007E007E007AB
S214002FD0E007E007E007E007E007E007E007E007B4
S214002FE0E007E007E007E007000000000000000040
S214002FF000000000000000000000000000000000CC
S21400300000000000000000000000000000000000BB
S21400301000000000000000000000000000000000AB
S214003020000000000000000000000000000000009B
S2140032400000E007E007E007E007E007E007E00728
S214003250E007E007E007E007E007E007E007E00731
S214003260E007E007E007E0070000000000000000BD
S2140032700000000000000000000000000000000049
S2140032800000000000000000000000000000000039
S2140032900000000000000000000000000000000029
S2140032A00000000000000000000000000000000019
S2140034C00000E007E007E007E007E007E007E007A6
S2140034D0E007E007E007E007E007E007E007E007AF
S2140034E0E007E007E007E00700000000000000003B
S2140034F000000000000000000000000000000000C7
S21400350000000000000000000000000000000000B6
S21400351000000000000000000000000000000000A6
S2140035200000000000000000000000000000000096
S2140037400000E007E007E007E007E007E007E00723
S214003750E007E007E007E007E007E007E007E0072C
S214003760E007E007E007E0070000000000000000B8
S2140037700000000000000000000000000000000044
S2140037800000000000000000000000000000000034
S2140037900000000000000000000000000000000024
S2140037A00000000000000000000000000000000014
S2140039C00000E007E007E007E007E007E007E007A1
S2140039D0E007E007E007E007E007E007E007E007AA
S2140039E0E007E007E007E007000000000000000036
S2140039F000000000000000000000000000000000C2
S214003A0000000000000000000000000000000000B1
S214003A1000000000000000000000000000000000A1
S214003A200000000000000000000000000000000091
S214003C400000E007E007E007E007E007E007E0071E
S214003C50E007E007E007E007E007E007E007E00727
S214003C60E007E007E007E0070000000000000000B3
S214003C70000000000000000000000000000000003F
S214003C80000000000000000000000000000000002F
S214003C90000000000000000000000000000000001F
S214003CA0000000000000000000000000000000000F
S214003EC00000E007E007E007E007E007E007E0079C
S214003ED0E007E007E007E007E007E007E007E007A5
S214003EE0E007E007E007E007000000000000000031
S214003EF000000000000000000000000000000000BD
S214003F0000000000000000000000000000000000AC
S214003F10000000000000000000000000000000009C
S214003F20000000000000000000000000000000008C
S2140041400000E007E007E007E007E007E007E00719
S214004150E007E007E007E007E007E007E007E00722
S214004160E007E007E007E0070000000000000000AE
S214004170000000000000000000000000000000003A
S214004180000000000000000000000000000000002A
S214004190000000000000000000000000000000001A
S2140041A0000000000000000000000000000000000A
S2140043C00000E007E007E007E007E007E007E00797
S2140043D0E007E007E007E007E007E007E007E007A0
S2140043E0E007E007E007E00700000000000000002C
S2140043F000000000000000000000000000000000B8
S21400440000000000000000000000000000000000A7
S2140044100000000000000000000000000000000097
S2140044200000000000000000000000000000000087
S2140046400000E007E007E007E007E007E007E00714
S214004650E007E007E007E007E007E007E007E0071D
S214004660E007E007E007E0070000000000000000A9
S2140046700000000000000000000000000000000035
S2140046800000000000000000000000000000000025
S2140046900000000000000000000000000000000015
S2140046A00000000000000000000000000000000005
S2140048C00000E007E007E007E007E007E007E00792
S2140048D0E007E007E007E007E007E007E007E0079B
S2140048E0E007E007E007E007000000000000000027
S2140048F000000000000000000000000000000000B3
S21400490000000000000000000000000000000000A2
S2140049100000000000000000000000000000000092
S2140049200000000000000000000000000000000082
S214004B400000E007E007E007E007E007E007E0070F
S214004B50E007E007E007E007E007E007E007E00718
S214004B60E007E007E007E0070000000000000000A4
S214004B700000000000000000000000000000000030
S214004B800000000000000000000000000000000020
S214004B900000000000000000000000000000000010
S214004BA00000000000000000000000000000000000
S214004DC00000E007E007E007E007E007E007E0078D
S214004DD0E007E007E007E007E007E007E007E00796
S214004DE0E007E007E007E007000000000000000022
S214004DF000000000000000000000000000000000AE
S214004E00000000000000000000000000000000009D
S214004E10000000000000000000000000000000008D
S214004E20000000000000000000000000000000007D
S2140050400000E007E007E007E007E007E007E0070A
S214005050E007E007E007E007E007E007E007E00713
S214005060E007E007E007E00700000000000000009F
S214005070000000000000000000000000000000002B
S214005080000000000000000000000000000000001B
S214005090000000000000000000000000000000000B
S2140050A000000000000000000000000000000000FB
S2140052C00000E007E007E007E007E007E007E00788
S2140052D0E007E007E007E007E007E007E007E00791
S2140052E0E007E007E007E00700000000000000001D
S2140052F000000000000000000000000000000000A9
S2140053000000000000000000000000000000000098
S2140053100000000000000000000000000000000088
S2140053200000000000000000000000000000000078
S2140055400000E007E007E007E007E007E007E00705
S214005550E007E007E007E007E007E007E007E0070E
S214005560E007E007E007E00700000000000000009A
S2140055700000000000000000000000000000000026
S2140055800000000000000000000000000000000016
S2140055900000000000000000000000000000000006
S2140055A000000000000000000000000000000000F6
S2140057C00000E007E007E007E007E007E007E00783
S2140057D0E007E007E007E007E007E007E007E0078C
S2140057E0E007E007E007E007000000000000000018
S2140057F000000000000000000000000000000000A4
S2140058000000000000000000000000000000000093
S2140058100000000000000000000000000000000083
S2140058200000000000000000000000000000000073
S214005A400000E007E007E007E007E007E007E00700
S214005A50E007E007E007E007E007E007E007E00709
S214005A60E007E007E007E007000000000000000095
S214005A700000000000000000000000000000000021
S214005A800000000000000000000000000000000011
S214005A900000000000000000000000000000000001
S214005AA000000000000000000000000000000000F1
S214005CC00000E007E007E007E007E007E007E0077E
S214005CD0E007E007E007E007E007E007E007E00787
S214005CE0E007E007E007E007000000000000000013
S214005CF0000000000000000000000000000000009F
S214005D00000000000000000000000000000000008E
S214005D10000000000000000000000000000000007E
S214005D20000000000000000000000000000000006E
S214005F400000E007E007E007E007E007E007E007FB
S214005F50E007E007E007E007E007E007E007E00704
S214005F60E007E007E007E007000000000000000090
S214005F70000000000000000000000000000000001C
S214005F80000000000000000000000000000000000C
S214005F9000000000000000000000000000000000FC
S214005FA000000000000000000000000000000000EC
S2140061C00000E007E007E007E007E007E007E00779
S2140061D0E007E007E007E007E007E007E007E00782
S2140061E0E007E007E007E00700000000000000000E
S2140061F0000000000000000000000000000000009A
S2140062000000000000000000000000000000000089
S2140062100000000000000000000000000000000079
S2140062200000000000000000000000000000000069
S2140064400000E007E007E007E007E007E007E007F6
S214006450E007E007E007E007E007E007E007E007FF
S214006460E007E007E007E00700000000000000008B
S2140064700000000000000000000000000000000017
S2140064800000000000000000000000000000000007
S21400649000000000000000000000000000000000F7
S2140064A000000000000000000000000000000000E7
S2140066C00000E007E007E007E007E007E007E00774
S2140066D0E007E007E007E007E007E007E007E0077D
S2140066E0E007E007E007E007000000000000000009
S2140066F00000000000000000000000000000000095
S2140067000000000000000000000000000000000084
S2140067100000000000000000000000000000000074
S2140067200000000000000000000000000000000064
S2140069400000E007E007E007E007E007E007E007F1
S214006950E007E007E007E007E007E007E007E007FA
S214006960E007E007E007E007000000000000000086
S2140069700000000000000000000000000000000012
S2140069800000000000000000000000000000000002
S21400699000000000000000000000000000000000F2
S2140069A000000000000000000000000000000000E2
S214006BC00000E007E007E007E007E007E007E0076F
S214006BD0E007E007E007E007E007E007E007E00778
S214006BE0E007E007E007E007000000000000000004
S214006BF00000000000000000000000000000000090
S214006C00000000000000000000000000000000007F
S214006C10000000000000000000000000000000006F
S214006C20000000000000000000000000000000005F
S214006E400000E007E007E007E007E007E007E007EC
S214006E50E007E007E007E007E007E007E007E007F5
S214006E60E007E007E007E007000000000000000081
S214006E70000000000000000000000000000000000D
S214006E8000000000000000000000000000000000FD
S214006E9000000000000000000000000000000000ED
S214006EA000000000000000000000000000000000DD
S2140070C00000E007E007E007E007E007E007E0076A
S2140070D0E007E007E007E007E007E007E007E00773
S2140070E0E007E007E007E0070000000000000000FF
S2140070F0000000000000000000000000000000008B
S214007100000000000000000000000000000000007A
S214007110000000000000000000000000000000006A
S214007120000000000000000000000000000000005A
S2140073400000E007E007E007E007E007E007E007E7
S214007350E007E007E007E007E007E007E007E007F0
S214007360E007E007E007E00700000000000000007C
S2140073700000000000000000000000000000000008
S21400738000000000000000000000000000000000F8
S21400739000000000000000000000000000000000E8
S2140073A000000000000000000000000000000000D8
S2140075C00000E007E007E007E007E007E007E00765
S2140075D0E007E007E007E007E007E007E007E0076E
S2140075E0E007E007E007E0070000000000000000FA
S2140075F00000000000000000000000000000000086
S2140076000000000000000000000000000000000075
S2140076100000000000000000000000000000000065
S2140076200000000000000000000000000000000055
S2140078400000E007E007E007E007E007E007E007E2
S214007850E007E007E007E007E007E007E007E007EB
S214007860E007E007E007E007000000000000000077
S2140078700000000000000000000000000000000003
S21400788000000000000000000000000000000000F3
S21400789000000000000000000000000000000000E3
S2140078A000000000000000000000000000000000D3
S214007AC00000E007E007E007E007E007E007E00760
S214007AD0E007E007E007E007E007E007E007E00769
S214007AE0E007E007E007E0070000000000000000F5
S214007AF00000000000000000000000000000000081
S214007B000000000000000000000000000000000070
S214007B100000000000000000000000000000000060
S214007B200000000000000000000000000000000050
S214007D400000E007E007E007E007E007E007E007DD
S214007D50E007E007E007E007E007E007E007E007E6
S214007D60E007E007E007E007000000000000000072
S214007D7000000000000000000000000000000000FE
S214007D8000000000000000000000000000000000EE
S214007D9000000000000000000000000000000000DE
S214007DA000000000000000000000000000000000CE
S214007FC00000E007E007E007E007E007E007E0075B
S214007FD0E007E007E007E007E007E007E007E00764
S214007FE0E007E007E007E0070000000000000000F0
S214007FF0000000000000000000000000000000007C
S214008000000000000000000000000000000000006B
S214008010000000000000000000000000000000005B
S214008020000000000000000000000000000000004B
S2140082400000E007E007E007E007E007E007E007D8
S214008250E007E007E007E007E007E007E007E007E1
S214008260E007E007E007E00700000000000000006D
S21400827000000000000000000000000000000000F9
S21400828000000000000000000000000000000000E9
S21400829000000000000000000000000000000000D9
S2140082A000000000000000000000000000000000C9
S2140084C00000E007E007E007E007E007E007E00756
S2140084D0E007E007E007E007E007E007E007E0075F
S2140084E0E007E007E007E0070000000000000000EB
S2140084F00000000000000000000000000000000077
S2140085000000000000000000000000000000000066
S2140085100000000000000000000000000000000056
S2140085200000000000000000000000000000000046
S2140087400000E007E007E007E007E007E007E007D3
S214008750E007E007E007E007E007E007E007E007DC
S214008760E007E007E007E007000000000000000068
S21400877000000000000000000000000000000000F4
S21400878000000000000000000000000000000000E4
S21400879000000000000000000000000000000000D4
S2140087A000000000000000000000000000000000C4
S2140089C00000E007E007E007E007E007E007E00751
S2140089D0E007E007E007E007E007E007E007E0075A
S2140089E0E007E007E007E0070000000000000000E6
S2140089F00000000000000000000000000000000072
S214008A000000000000000000000000000000000061
S214008A100000000000000000000000000000000051
S214008A200000000000000000000000000000000041
S214008C400000E007E007E007E007E007E007E007CE
S214008C50E007E007E007E007E007E007E007E007D7
S214008C60E007E007E007E007000000000000000063
S214008C7000000000000000000000000000000000EF
S214008C8000000000000000000000000000000000DF
S214008C9000000000000000000000000000000000CF
S214008CA000000000000000000000000000000000BF
S214008EC00000E007E007E007E007E007E007E0074C
S214008ED0E007E007E007E007E007E007E007E00755
S214008EE0E007E007E007E0070000000000000000E1
S214008EF0000000000000000000000000000000006D
S214008F00000000000000000000000000000000005C
S214008F10000000000000000000000000000000004C
S214008F20000000000000000000000000000000003C
S2140091400000E007E007E007E007E007E007E007C9
S214009150E007E007E007E007E007E007E007E007D2
S214009160E007E007E007E00700000000000000005E
S21400917000000000000000000000000000000000EA
S21400918000000000000000000000000000000000DA
S21400919000000000000000000000000000000000CA
S2140091A000000000000000000000000000000000BA
S2140093C00000E007E007E007E007E007E007E00747
S2140093D0E007E007E007E007E007E007E007E00750
S2140093E0E007E007E007E0070000000000000000DC
S2140093F00000000000000000000000000000000068
S2140094000000000000000000000000000000000057
S2140094100000000000000000000000000000000047
S2140094200000000000000000000000000000000037
S214009660E007E007E007E007000000000000000059
S21400967000000000000000000000000000000000E5
S21400968000000000000000000000000000000000D5
S21400969000000000000000000000000000000000C5
S2140096A000000000000000000000000000000000B5
S2140098E0E007E007E007E0070000000000000000D7
S2140098F00000000000000000000000000000000063
S2140099000000000000000000000000000000000052
S2140099100000000000000000000000000000000042
S2140099200000000000000000000000000000000032
S214009B60E007E007E007E007000000000000000054
S214009B7000000000000000000000000000000000E0
S214009B8000000000000000000000000000000000D0
S214009B9000000000000000000000000000000000C0
S214009BA000000000000000000000000000000000B0
S214009DE0E007E007E007E0070000000000000000D2
S214009DF0000000000000000000000000000000005E
S214009E00000000000000000000000000000000004D
S214009E10000000000000000000000000000000003D
S214009E20000000000000000000000000000000002D
S21400A060E007E007E007E00700000000000000004F
S21400A07000000000000000000000000000000000DB
S21400A08000000000000000000000000000000000CB
S21400A09000000000000000000000000000000000BB
S21400A0A000000000000000000000000000000000AB
S21400A2E0E007E007E00700000000000000000000B4
S21400A2F00000000000000000000000000000000059
S21400A3000000000000000000000000000000000048
S21400A3100000000000000000000000000000000038
S21400A3200000000000000000000000000000000028
S21400A560E007E007E0070000000000000000000031
S21400A57000000000000000000000000000000000D6
S21400A58000000000000000000000000000000000C6
S21400A59000000000000000000000000000000000B6
S21400A5A000000000000000000000000000000000A6
S21400A7E0E007E007E00700000000000000000000AF
S21400A7F00000000000000000000000000000000054
S21400A8000000000000000000000000000000000043
S21400A8100000000000000000000000000000000033
S21400A8200000000000000000000000000000000023
S21400AA60E007E007E007000000000000000000002C
S21400AA7000000000000000000000000000000000D1
S21400AA8000000000000000000000000000000000C1
S21400AA9000000000000000000000000000000000B1
S21400AAA000000000000000000000000000000000A1
S21400ACE0E007E007E00700000000000000000000AA
S21400ACF0000000000000000000000000000000004F
S21400AD00000000000000000000000000000000003E
S21400AD10000000000000000000000000000000002E
S21400AD20000000000000000000000000000000001E
S21400AF60E007E007E0070000000000000000000027
S21400AF7000000000000000000000000000000000CC
S21400AF8000000000000000000000000000000000BC
S21400AF9000000000000000000000000000000000AC
S21400AFA0000000000000000000000000000000009C
S21400B1E0E007E007E00700000000000000000000A5
S21400B1F0000000000000000000000000000000004A
S21400B2000000000000000000000000000000000039
S21400B2100000000000000000000000000000000029
S21400B2200000000000000000000000000000000019
S21400B460E007E007E0070000000000000000000022
S21400B47000000000000000000000000000000000C7
S21400B48000000000000000000000000000000000B7
S21400B49000000000000000000000000000000000A7
S21400B4A00000000000000000000000000000000097
S21400B6E0E007E007E00700000000000000000000A0
S21400B6F00000000000000000000000000000000045
S21400B7000000000000000000000000000000000034
S21400B7100000000000000000000000000000000024
S21400B7200000000000000000000000000000000014
S21400B960E007E007E007000000000000000000001D
S21400B97000000000000000000000000000000000C2
S21400B98000000000000000000000000000000000B2
S21400B99000000000000000000000000000000000A2
S21400B9A00000000000000000000000000000000092
S21400BBE0E007E007E007000000000000000000009B
S21400BBF00000000000000000000000000000000040
S21400BC00000000000000000000000000000000002F
S21400BC10000000000000000000000000000000001F
S21400BC20000000000000000000000000000000000F
S21400BE60E007E007E0070000000000000000000018
S21400BE7000000000000000000000000000000000BD
S21400BE8000000000000000000000000000000000AD
S21400BE90000000000000000000000000000000009D
S21400BEA0000000000000000000000000000000008D
S21400C0E0E007E007E0070000000000000000000096
S21400C0F0000000000000000000000000000000003B
S21400C100000000000000000000000000000000002A
S21400C110000000000000000000000000000000001A
S21400C120000000000000000000000000000000000A
S21400C13000000000000000000000000000000000FA
S21400C14000000000000000000000000000000000EA
S21400C15000000000000000000000000000000000DA
S21400C16000000000000000000000000000000000CA
S21400C17000000000000000000000000000000000BA
S21400C18000000000000000000000000000000000AA
S21400C190000000000000000000000000000000009A
S21400C1A0000000000000000000000000000000008A
S21400C1B0000000000000000000000000000000007A
S21400C1C0000000000000000000000000000000006A
S21400C1D0000000000000000000000000000000005A
S21400C1E0000000000000000000000000000000004A
S21400C1F0000000000000000000000000000000003A
S21400C2000000000000000000000000000000000029
S21400C2100000000000000000000000000000000019
S21400C2200000000000000000000000000000000009
S21400C23000000000000000000000E007E007E00744
S21400C240E007E007E007E007E007E007E007E007B1
S21400C250E007E007E007E007E007E007E007E007A1
S21400C260E007E007E007E007E007E007E007E00791
S21400C270E007E007E007E007E007E007E007E00781
S21400C280E007E007E007E007E007E007E007000058
S21400C2900000000000000000000000000000000099
S21400C2A00000000000000000000000000000000089
S21400C2B00000000000000000000000000000000079
S21400C2C00000000000000000000000000000000069
S21400C2D00000000000000000000000000000000059
S21400C2E00000000000000000000000000000000049
S21400C2F00000000000000000000000000000000039
S21400C3000000000000000000000000000000000028
S21400C3100000000000000000000000000000000018
S21400C3200000000000000000000000000000000008
S21400C33000000000000000000000000000000000F8
S21400C340E007E007E007E007E007E007E007E007B0
S21400C350E007E007E007E007E007E007E007E007A0
S21400C360E007E007E0070000000000000000000013
S21400C37000000000000000000000000000000000B8
S21400C38000000000000000000000000000000000A8
S21400C3900000000000000000000000000000000098
S21400C3A00000000000000000000000000000000088
S21400C3B00000000000000000000000000000000078
S21400C3C00000000000000000000000000000000068
S21400C3D00000000000000000000000000000000058
S21400C3E00000000000000000000000000000000048
S21400C3F00000000000000000000000000000000038
S21400C4000000000000000000000000000000000027
S21400C4100000000000000000000000000000000017
S21400C42000000000000000000000E007E007E00752
S21400C430E007E007E007E007E007E007E007E007BF
S21400C440E007E007E007E007E007E007E007E007AF
S21400C450E007E007E007E007E007E007E007E0079F
S21400C460E007E007E007E007E007E007E007E0078F
S21400C470E007E007E007E007E007E007E007E0077F
S21400C480E007E007E007E007E007E007E007E0076F
S21400C490E007E007E007E007E007E007E007E0075F
S21400C4A0E007E007E007E007E007E007E007E0074F
S21400C4B0E007E007E007E007E007E007E007E0073F
S21400C4C0E007E007E007E007E007E007E007E0072F
S21400C4D0E007E007E007E007E007E007E007E0071F
S21400C4E0E007E007E007E007E007E007E007E0070F
S21400C4F0E007E007E007E007E007E007E007E007FF
S21400C500E007E007E007E007E007E007E007E007EE
S21400C510E00700000000000000000000000000002F
S21400C5200000000000000000000000000000000006
S21400C53000000000000000000000000000000000F6
S21400C54000000000000000000000000000000000E6
S21400C55000000000000000000000000000000000D6
S21400C56000000000000000000000000000000000C6
S21400C57000000000000000000000000000000000B6
S21400C58000000000000000000000000000000000A6
S21400C5900000000000000000000000000000000096
S21400C5A00000000000000000000000000000000086
S21400C5B00000000000000000000000000000000076
S21400C5C0E007E007E007E007E007E007E007E0072E
S21400C5D0E007E007E007E007E007E007E007E0071E
S21400C5E0E007E007E0070000000000000000000091
S21400C5F00000000000000000000000000000000036
S21400C6000000000000000000000000000000000025
S21400C610000000000000000000000000E007E00747
S21400C620E007E007E007E007E007E007E007E007CD
S21400C630E007E007E007E007E007E007E007E007BD
S21400C640E007E007E007E007E007E007E007E007AD
S21400C650E007E007E007E007E007E007E007E0079D
S21400C660E007E007E007E007E007E007E007E0078D
S21400C670E007E007E007E007E007E007E007E0077D
S21400C680E007E007E007E007E007E007E007E0076D
S21400C690E007E007E007E007E007E007E007E0075D
S21400C6A0E007E007E007E007E007E007E007E0074D
S21400C6B0E007E007E007E007E007E007E007E0073D
S21400C6C0E007E007E007E007E007E007E007E0072D
S21400C6D0E007E007E007E007E007E007E007E0071D
S21400C6E0E007E007E007E007E007E007E007E0070D
S21400C6F0E007E007E007E007E007E007E007E007FD
S21400C700E007E007E007E007E007E007E007E007EC
S21400C710E007E007E007E007E007E007E007E007DC
S21400C720E007E007E007E007E007E007E007E007CC
S21400C730E007E007E007E007E007E007E007E007BC
S21400C740E007E007E007E007E007E007E007E007AC
S21400C750E007E007E007E007E007E007E007E0079C
S21400C760E007E007E007E007E007E007E007E0078C
S21400C770E007E007E007E007E007E007E007E0077C
S21400C780E007E007E007E007E007E007E007E0076C
S21400C790E007E007000000000000000000000000C6
S21400C7A00000000000000000000000000000000084
S21400C7B00000000000000000000000000000000074
S21400C7C00000000000000000000000000000000064
S21400C7D00000000000000000000000000000000054
S21400CA10E007E007E007000000000000000000005C
S21400CA200000000000000000000000000000000001
S21400CA3000000000000000000000000000000000F1
S21400CA4000000000000000000000000000000000E1
S21400CA5000000000000000000000000000000000D1
S21400CC90E007E007E007E0070000000000000000F3
S21400CCA0000000000000000000000000000000007F
S21400CCB0000000000000000000000000000000006F
S21400CCC0000000000000000000000000000000005F
S21400CCD0000000000000000000000000000000004F
S21400CF10E007E007E007E007000000000000000070
S21400CF2000000000000000000000000000000000FC
S21400CF3000000000000000000000000000000000EC
S21400CF4000000000000000000000000000000000DC
S21400CF5000000000000000000000000000000000CC
S21400D190E007E007E007E007E00700000000000007
S21400D1A0000000000000000000000000000000007A
S21400D1B0000000000000000000000000000000006A
S21400D1C0000000000000000000000000000000005A
S21400D1D0000000000000000000000000000000004A
S21400D410E007E007E007E007E00700000000000084
S21400D42000000000000000000000000000000000F7
S21400D43000000000000000000000000000000000E7
S21400D44000000000000000000000000000000000D7
S21400D45000000000000000000000000000000000C7
S21400D690E007E007E007E007E00700000000000002
S21400D6A00000000000000000000000000000000075
S21400D6B00000000000000000000000000000000065
S21400D6C00000000000000000000000000000000055
S21400D6D00000000000000000000000000000000045
S21400D910E007E007E007E007E0070000000000007F
S21400D92000000000000000000000000000000000F2
S21400D93000000000000000000000000000000000E2
S21400D94000000000000000000000000000000000D2
S21400D95000000000000000000000000000000000C2
S21400DB90E007E007E007E007E007000000000000FD
S21400DBA00000000000000000000000000000000070
S21400DBB00000000000000000000000000000000060
S21400DBC00000000000000000000000000000000050
S21400DBD00000000000000000000000000000000040
S21400DE10E007E007E007E007E0070000000000007A
S21400DE2000000000000000000000000000000000ED
S21400DE3000000000000000000000000000000000DD
S21400DE4000000000000000000000000000000000CD
S21400DE5000000000000000000000000000000000BD
S21400E090E007E007E007E007E007000000000000F8
S21400E0A0000000000000000000000000000000006B
S21400E0B0000000000000000000000000000000005B
S21400E0C0000000000000000000000000000000004B
S21400E0D0000000000000000000000000000000003B
S21400E310E007E007E007E007E00700000000000075
S21400E32000000000000000000000000000000000E8
S21400E33000000000000000000000000000000000D8
S21400E34000000000000000000000000000000000C8
S21400E35000000000000000000000000000000000B8
S21400E590E007E007E007E007E007000000000000F3
S21400E5A00000000000000000000000000000000066
S21400E5B00000000000000000000000000000000056
S21400E5C00000000000000000000000000000000046
S21400E5D00000000000000000000000000000000036
S21400E810E007E007E007E007E00700000000000070
S21400E82000000000000000000000000000000000E3
S21400E83000000000000000000000000000000000D3
S21400E84000000000000000000000000000000000C3
S21400E85000000000000000000000000000000000B3
S21400EA90E007E007E007E007E007000000000000EE
S21400EAA00000000000000000000000000000000061
S21400EAB00000000000000000000000000000000051
S21400EAC00000000000000000000000000000000041
S21400EAD00000000000000000000000000000000031
S21400ED10E007E007E007E007E0070000000000006B
S21400ED2000000000000000000000000000000000DE
S21400ED3000000000000000000000000000000000CE
S21400ED4000000000000000000000000000000000BE
S21400ED5000000000000000000000000000000000AE
S21400EF90E007E007E007E007E007000000000000E9
S21400EFA0000000000000000000000000000000005C
S21400EFB0000000000000000000000000000000004C
S21400EFC0000000000000000000000000000000003C
S21400EFD0000000000000000000000000000000002C
S21400F1C0E007E0070000000000000000000000006C
S21400F1D0000000000000000000000000000000002A
S21400F1E0000000000000000000000000000000001A
S21400F1F000000000E007E007E007E007E007E007A0
S21400F200E007E007E007E007E007E007E007E007C1
S21400F210E007E007E007E007E00700000000000066
S21400F22000000000000000000000000000000000D9
S21400F23000000000000000000000000000000000C9
S21400F24000000000000000000000000000000000B9
S21400F25000000000000000000000000000000000A9
S21400F2600000000000000000000000000000000099
S21400F2700000000000000000000000000000000089
S21400F2800000000000000000000000000000000079
S21400F2900000000000000000000000000000000069
S21400F2A00000000000000000000000000000000059
S21400F2B00000000000000000000000000000000049
S21400F2C0E007E007E007E007E007E007E007E00701
S21400F2D0E007E007E007E007E007E007E007E007F1
S21400F2E0E007E007E007E007E007E007E007E007E1
S21400F2F0E007E007E007E007E007E007E007E007D1
S21400F300E007E007E007E007E007E007E007E007C0
S21400F310E007E007E007E007E007E007E007E007B0
S21400F320E007E007E007E007E007E007E007E007A0
S21400F330E007E007E007E007E007E007E007E00790
S21400F340E007E007E007E007E007E007E007E00780
S21400F350E007E007E007E007E007E007E007E00770
S21400F360E007E007E007E007E007E007E007E00760
S21400F370E007E007E007E007E007E007E007E00750
S21400F380E007E007E007E007E007E007E007E00740
S21400F390E007E007E007E007E007E007E007E00730
S21400F3A0E007E007E007E007E007E007E007E00720
S21400F3B0E007E0070000000000000000000000007A
S21400F3C00000000000000000000000000000000038
S21400F3D00000000000000000000000000000000028
S21400F3E00000000000000000000000000000000018
S21400F3F00000000000000000000000000000000008
S21400F40000000000000000000000000000000000F7
S21400F41000000000000000000000000000000000E7
S21400F42000000000000000000000000000000000D7
S21400F43000000000000000000000000000000000C7
S21400F44000000000000000000000000000000000B7
S21400F45000000000000000000000000000000000A7
S21400F4600000000000000000000000000000000097
S21400F47000000000E007E007E007E007E007E0071D
S21400F480E007E007E007E007E007E007E007E0073F
S21400F490E007E007E007E007E007000000000000E4
S21400F4A00000000000000000000000000000000057
S21400F4B00000000000000000000000000000000047
S21400F4C00000000000000000000000000000000037
S21400F4D00000000000000000000000000000000027
S21400F4E00000000000000000000000000000000017
S21400F4F00000000000000000000000000000000007
S21400F50000000000000000000000000000000000F6
S21400F51000000000000000000000000000000000E6
S21400F52000000000000000000000000000000000D6
S21400F53000000000000000000000000000000000C6
S21400F540E007E007E007E007E007E007E007E0077E
S21400F550E007E007E007E007E007E007E007E0076E
S21400F560E007E007E007E007E007E007E007E0075E
S21400F570E007E007E007E007E007E007E007E0074E
S21400F580E007E007E007E007E007E007E007E0073E
S21400F590E007E007E007E007E007E007E007E0072E
S21400F5A0E007E007E00700000000000000000000A1
S21400F5B00000000000000000000000000000000046
S21400F5C00000000000000000000000000000000036
S21400F5D00000000000000000000000000000000026
S21400F5E00000000000000000000000000000000016
S21400F5F00000000000000000000000000000000006
S21400F60000000000000000000000000000000000F5
S21400F61000000000000000000000000000000000E5
S21400F62000000000000000000000000000000000D5
S21400F63000000000000000000000000000000000C5
S21400F64000000000000000000000000000000000B5
S21400F65000000000000000000000000000000000A5
S21400F6600000000000000000000000000000000095
S21400F6700000000000000000000000000000000085
S21400F6800000000000000000000000000000000075
S21400F6900000000000000000000000000000000065
S21400F6A00000000000000000000000000000000055
S21400F6B00000000000000000000000000000000045
S21400F6C00000000000000000000000000000000035
S21400F6D00000000000000000000000000000000025
S21400F6E00000000000000000000000000000000015
S21400F6F000000000E007E007E007E007E007E0079B
S21400F700E007E007E007E007E007E007E007E007BC
S21400F710E007E007E007E007E00700000000000061
S21400F72000000000000000000000000000000000D4
S21400F73000000000000000000000000000000000C4
S21400F74000000000000000000000000000000000B4
S21400F75000000000000000000000000000000000A4
S21400F7600000000000000000000000000000000094
S21400F7700000000000000000000000000000000084
S21400F7800000000000000000000000000000000074
S21400F7900000000000000000000000000000000064
S21400F7A00000000000000000000000000000000054
S21400F7B00000000000000000000000000000000044
S21400F7C0E007E007E007E007E007E007E007E007FC
S21400F7D0E007E007E007E007E007E007E007E007EC
S21400F7E0E007E007E007000000000000000000005F
S21400F7F00000000000000000000000000000000004
S21400F80000000000000000000000000000000000F3
S21400F81000000000000000000000000000000000E3
S21400F82000000000000000000000000000000000D3
S21400F83000000000000000000000000000000000C3
S21400F84000000000000000000000000000000000B3
S21400F85000000000000000000000000000000000A3
S21400F8600000000000000000000000000000000093
S21400F8700000000000000000000000000000000083
S21400F8800000000000000000000000000000000073
S21400F8900000000000000000000000000000000063
S21400F8A00000000000000000000000000000000053
S21400F8B00000000000000000000000000000000043
S21400F8C00000000000000000000000000000000033
S21400F8D00000000000000000000000000000000023
S21400F8E00000000000000000000000000000000013
S21400F8F00000000000000000000000000000000003
S21400F90000000000000000000000000000000000F2
S21400F91000000000000000000000000000000000E2
S21400F92000000000000000000000000000000000D2
S21400F93000000000000000000000000000000000C2
S21400F94000000000000000000000000000000000B2
S21400F95000000000000000000000000000000000A2
S21400F9600000000000000000000000000000000092
S21400F97000000000E007E007E007E007E007E00718
S21400F980E007E007E007E007E007E007E007E0073A
S21400F990E007E007E007E007E007000000000000DF
S21400F9A00000000000000000000000000000000052
S21400F9B00000000000000000000000000000000042
S21400F9C00000000000000000000000000000000032
S21400F9D00000000000000000000000000000000022
S21400F9E00000000000000000000000000000000012
S21400F9F00000000000000000000000000000000002
S21400FA0000000000000000000000000000000000F1
S21400FA1000000000000000000000000000000000E1
S21400FA2000000000000000000000000000000000D1
S21400FA3000000000000000000000000000000000C1
S21400FA40E007E007E007E007E007E007E007E00779
S21400FA50E007E007E007E007E007E007E007E00769
S21400FA60E007E007E00700000000000000000000DC
S21400FA700000000000000000000000000000000081
S21400FA800000000000000000000000000000000071
S21400FA900000000000000000000000000000000061
S21400FAA00000000000000000000000000000000051
S21400FAB00000000000000000000000000000000041
S21400FAC00000000000000000000000000000000031
S21400FAD00000000000000000000000000000000021
S21400FAE00000000000000000000000000000000011
S21400FAF00000000000000000000000000000000001
S21400FB0000000000000000000000000000000000F0
S21400FB1000000000000000000000000000000000E0
S21400FB2000000000000000000000000000000000D0
S21400FB3000000000000000000000000000000000C0
S21400FB4000000000000000000000000000000000B0
S21400FB5000000000000000000000000000000000A0
S21400FB600000000000000000000000000000000090
S21400FB700000000000000000000000000000000080
S21400FB800000000000000000000000000000000070
S21400FB900000000000000000000000000000000060
S21400FBA00000000000000000000000000000000050
S21400FBB00000000000000000000000000000000040
S21400FBC00000000000000000000000000000000030
S21400FBD00000000000000000000000000000000020
S21400FBE00000000000000000000000000000000010
S21400FBF000000000E007E007E007E007E007E00796
S21400FC00E007E007E007E007E007E007E007E007B7
S21400FC10E007E007E007E007E0070000000000005C
S21400FC2000000000000000000000000000000000CF
S21400FC3000000000000000000000000000000000BF
S21400FC4000000000000000000000000000000000AF
S21400FC50000000000000000000000000000000009F
S21400FC60000000000000000000000000000000008F
S21400FC70000000000000000000000000000000007F
S21400FC80000000000000000000000000000000006F
S21400FC90000000000000000000000000000000005F
S21400FCA0000000000000000000000000000000004F
S21400FCB0000000000000000000000000000000003F
S21400FCC0E007E007E007E007E007E007E007E007F7
S21400FCD0E007E007E007E007E007E007E007E007E7
S21400FCE0E007E007E007000000000000000000005A
S21400FCF000000000000000000000000000000000FF
S21400FD0000000000000000000000000000000000EE
S21400FD1000000000000000000000000000000000DE
S21400FD2000000000000000000000000000000000CE
S21400FD3000000000000000000000000000000000BE
S21400FD4000000000000000000000000000000000AE
S21400FD50000000000000000000000000000000009E
S21400FD60000000000000000000000000000000008E
S21400FD70000000000000000000000000000000007E
S21400FD80000000000000000000000000000000006E
S21400FD90000000000000000000000000000000005E
S21400FDA0000000000000000000000000000000004E
S21400FDB0000000000000000000000000000000003E
S21400FDC0000000000000000000000000000000002E
S21400FDD0000000000000000000000000000000001E
S21400FDE0000000000000000000000000000000000E
S21400FDF000000000000000000000000000000000FE
S21400FE0000000000000000000000000000000000ED
S21400FE1000000000000000000000000000000000DD
S21400FE2000000000000000000000000000000000CD
S21400FE3000000000000000000000000000000000BD
S21400FE4000000000000000000000000000000000AD
S21400FE50000000000000000000000000000000009D
S21400FE60000000000000000000000000000000008D
S21400FE7000000000E007E007E007E007E007E00713
S21400FE80E007E007E007E007E007E007E007E00735
S21400FE90E007E007E007E007E007000000000000DA
S21400FEA0000000000000000000000000000000004D
S21400FEB0000000000000000000000000000000003D
S21400FEC0000000000000000000000000000000002D
S21400FED0000000000000000000000000000000001D
S21400FEE0000000000000000000000000000000000D
S21400FEF000000000000000000000000000000000FD
S21400FF0000000000000000000000000000000000EC
S21400FF1000000000000000000000000000000000DC
S21400FF2000000000000000000000000000000000CC
S21400FF3000000000000000000000000000000000BC
S21400FF40E007E007E007E007E007E007E007E00774
S21400FF50E007E007E007E007E007E007E007E00764
S21400FF60E007E007E00700000000000000000000D7
S21400FF70000000000000000000000000000000007C
S21400FF80000000000000000000000000000000006C
S21400FF90000000000000000000000000000000005C
S21400FFA0000000000000000000000000000000004C
S21400FFB0000000000000000000000000000000003C
S21400FFC0000000000000000000000000000000002C
S21400FFD0000000000000000000000000000000001C
S21400FFE0000000000000000000000000000000000C
S21400FFF000000000000000000000000000000000FC
S21401000000000000000000000000000000000000EA
S21401001000000000000000000000000000000000DA
S21401002000000000000000000000000000000000CA
S21401003000000000000000000000000000000000BA
S21401004000000000000000000000000000000000AA
S214010050000000000000000000000000000000009A
S214010060000000000000000000000000000000008A
S214010070000000000000000000000000000000007A
S214010080000000000000000000000000000000006A
S214010090000000000000000000000000000000005A
S2140100A0000000000000000000000000000000004A
S2140100B0000000000000000000000000000000003A
S2140100C0000000000000000000000000000000002A
S2140100D0000000000000000000000000000000001A
S2140100E0000000000000000000000000000000000A
S2140100F000000000E007E007E007E007E007E00790
S214010100E007E007E007E007E007E007E007E007B1
S214010110E007E007E007E007E00700000000000056
S21401012000000000000000000000000000000000C9
S21401013000000000000000000000000000000000B9
S21401014000000000000000000000000000000000A9
S2140101500000000000000000000000000000000099
S2140101600000000000000000000000000000000089
S2140101700000000000000000000000000000000079
S2140101800000000000000000000000000000000069
S2140101900000000000000000000000000000000059
S2140101A00000000000000000000000000000000049
S2140101B00000000000000000000000000000000039
S2140101C0E007E007E007E007E007E007E007E007F1
S2140101D0E007E007E007E007E007E007E007E007E1
S2140101E0E007E007E0070000000000000000000054
S2140101F000000000000000000000000000000000F9
S21401020000000000000000000000000000000000E8
S21401021000000000000000000000000000000000D8
S21401022000000000000000000000000000000000C8
S21401023000000000000000000000000000000000B8
S21401024000000000000000000000000000000000A8
S2140102500000000000000000000000000000000098
S2140102600000000000000000000000000000000088
S2140102700000000000000000000000000000000078
S2140102800000000000000000000000000000000068
S2140102900000000000000000000000000000000058
S2140102A00000000000000000000000000000000048
S2140102B00000000000000000000000000000000038
S2140102C00000000000000000000000000000000028
S2140102D00000000000000000000000000000000018
S2140102E00000000000000000000000000000000008
S2140102F000000000000000000000000000000000F8
S21401030000000000000000000000000000000000E7
S21401031000000000000000000000000000000000D7
S21401032000000000000000000000000000000000C7
S21401033000000000000000000000000000000000B7
S21401034000000000000000000000000000000000A7
S2140103500000000000000000000000000000000097
S2140103600000000000000000000000000000000087
S21401037000000000E007E007E007E007E007E0070D
S214010380E007E007E007E007E007E007E007E0072F
S214010390E007E007E007E007E007000000000000D4
S2140103A00000000000000000000000000000000047
S2140103B00000000000000000000000000000000037
S2140103C00000000000000000000000000000000027
S2140103D00000000000000000000000000000000017
S2140103E00000000000000000000000000000000007
S2140103F000000000000000000000000000000000F7
S21401040000000000000000000000000000000000E6
S21401041000000000000000000000000000000000D6
S21401042000000000000000000000000000000000C6
S21401043000000000000000000000000000000000B6
S214010440E007E007E007E007E007E007E007E0076E
S214010450E007E007E007E007E007E007E007E0075E
S214010460E007E007E00700000000000000000000D1
S2140104700000000000000000000000000000000076
S2140104800000000000000000000000000000000066
S2140104900000000000000000000000000000000056
S2140104A00000000000000000000000000000000046
S2140104B00000000000000000000000000000000036
S2140104C00000000000000000000000000000000026
S2140104D00000000000000000000000000000000016
S2140104E00000000000000000000000000000000006
S2140104F000000000000000000000000000000000F6
S21401050000000000000000000000000000000000E5
S21401051000000000000000000000000000000000D5
S21401052000000000000000000000000000000000C5
S21401053000000000000000000000000000000000B5
S21401054000000000000000000000000000000000A5
S2140105500000000000000000000000000000000095
S2140105600000000000000000000000000000000085
S2140105700000000000000000000000000000000075
S2140105800000000000000000000000000000000065
S2140105900000000000000000000000000000000055
S2140105A00000000000000000000000000000000045
S2140105B00000000000000000000000000000000035
S2140105C00000000000000000000000000000000025
S2140105D00000000000000000000000000000000015
S2140105E00000000000000000000000000000000005
S2140105F000000000E007E007E007E007E007E0078B
S214010600E007E007E007E007E007E007E007E007AC
S214010610E007E007E007E007E00700000000000051
S21401062000000000000000000000000000000000C4
S21401063000000000000000000000000000000000B4
S21401064000000000000000000000000000000000A4
S2140106500000000000000000000000000000000094
S2140106600000000000000000000000000000000084
S2140106700000000000000000000000000000000074
S2140106800000000000000000000000000000000064
S2140106900000000000000000000000000000000054
S2140106A00000000000000000000000000000000044
S2140106B00000000000000000000000000000000034
S2140106C0E007E007E007E007E007E007E007E007EC
S2140106D0E007E007E007E007E007E007E007E007DC
S2140106E0E007E007E007000000000000000000004F
S2140106F000000000000000000000000000000000F4
S21401070000000000000000000000000000000000E3
S21401071000000000000000000000000000000000D3
S21401072000000000000000000000000000000000C3
S21401073000000000000000000000000000000000B3
S21401074000000000000000000000000000000000A3
S2140107500000000000000000000000000000000093
S2140107600000000000000000000000000000000083
S2140107700000000000000000000000000000000073
S2140107800000000000000000000000000000000063
S2140107900000000000000000000000000000000053
S2140107A00000000000000000000000000000000043
S2140107B00000000000000000000000000000000033
S2140107C00000000000000000000000000000000023
S2140107D00000000000000000000000000000000013
S2140107E00000000000000000000000000000000003
S2140107F000000000000000000000000000000000F3
S21401080000000000000000000000000000000000E2
S21401081000000000000000000000000000000000D2
S21401082000000000000000000000000000000000C2
S21401083000000000000000000000000000000000B2
S21401084000000000000000000000000000000000A2
S2140108500000000000000000000000000000000092
S2140108600000000000000000000000000000000082
S21401087000000000E007E007E007E007E007E00708
S214010880E007E007E007E007E007E007E007E0072A
S214010890E007E007E007E007E007000000000000CF
S2140108A00000000000000000000000000000000042
S2140108B00000000000000000000000000000000032
S2140108C00000000000000000000000000000000022
S2140108D00000000000000000000000000000000012
S2140108E00000000000000000000000000000000002
S2140108F000000000000000000000000000000000F2
S21401090000000000000000000000000000000000E1
S21401091000000000000000000000000000000000D1
S21401092000000000000000000000000000000000C1
S21401093000000000000000000000000000000000B1
S214010940E007E007E007E007E007E007E007E00769
S214010950E007E007E007E007E007E007E007E00759
S214010960E007E007E00700000000000000000000CC
S2140109700000000000000000000000000000000071
S2140109800000000000000000000000000000000061
S2140109900000000000000000000000000000000051
S2140109A00000000000000000000000000000000041
S2140109B00000000000000000000000000000000031
S2140109C00000000000000000000000000000000021
S2140109D00000000000000000000000000000000011
S2140109E00000000000000000000000000000000001
S2140109F000000000000000000000000000000000F1
S214010A0000000000000000000000000000000000E0
S214010A1000000000000000000000000000000000D0
S214010A2000000000000000000000000000000000C0
S214010A3000000000000000000000000000000000B0
S214010A4000000000000000000000000000000000A0
S214010A500000000000000000000000000000000090
S214010A600000000000000000000000000000000080
S214010A700000000000000000000000000000000070
S214010A800000000000000000000000000000000060
S214010A900000000000000000000000000000000050
S214010AA00000000000000000000000000000000040
S214010AB00000000000000000000000000000000030
S214010AC00000000000000000000000000000000020
S214010AD00000000000000000000000000000000010
S214010AE00000000000000000000000000000000000
S214010AF000000000E007E007E007E007E007E00786
S214010B00E007E007E007E007E007E007E007E007A7
S214010B10E007E007E007E007E0070000000000004C
S214010B2000000000000000000000000000000000BF
S214010B3000000000000000000000000000000000AF
S214010B40000000000000000000000000000000009F
S214010B50000000000000000000000000000000008F
S214010B60000000000000000000000000000000007F
S214010B70000000000000000000000000000000006F
S214010B80000000000000000000000000000000005F
S214010B90000000000000000000000000000000004F
S214010BA0000000000000000000000000000000003F
S214010BB0000000000000000000000000000000002F
S214010BC0E007E007E007E007E007E007E007E007E7
S214010BD0E007E007E007E007E007E007E007E007D7
S214010BE0E007E007E007000000000000000000004A
S214010BF000000000000000000000000000000000EF
S214010C0000000000000000000000000000000000DE
S214010C1000000000000000000000000000000000CE
S214010C2000000000000000000000000000000000BE
S214010C3000000000000000000000000000000000AE
S214010C40000000000000000000000000000000009E
S214010C50000000000000000000000000000000008E
S214010C60000000000000000000000000000000007E
S214010C70000000000000000000000000000000006E
S214010C80000000000000000000000000000000005E
S214010C90000000000000000000000000000000004E
S214010CA0000000000000000000000000000000003E
S214010CB0000000000000000000000000000000002E
S214010CC0000000000000000000000000000000001E
S214010CD0000000000000000000000000000000000E
S214010CE000000000000000000000000000000000FE
S214010CF000000000000000000000000000000000EE
S214010D0000000000000000000000000000000000DD
S214010D1000000000000000000000000000000000CD
S214010D2000000000000000000000000000000000BD
S214010D3000000000000000000000000000000000AD
S214010D40000000000000000000000000000000009D
S214010D50000000000000000000000000000000008D
S214010D60000000000000000000000000000000007D
S214010D7000000000E007E007E007E007E007E00703
S214010D80E007E007E007E007E007E007E007E00725
S214010D90E007E007E007E007E007000000000000CA
S214010DA0000000000000000000000000000000003D
S214010DB0000000000000000000000000000000002D
S214010DC0000000000000000000000000000000001D
S214010DD0000000000000000000000000000000000D
S214010DE000000000000000000000000000000000FD
S214010DF000000000000000000000000000000000ED
S214010E0000000000000000000000000000000000DC
S214010E1000000000000000000000000000000000CC
S214010E2000000000000000000000000000000000BC
S214010E3000000000000000000000000000000000AC
S214010E40E007E007E007E007E007E007E007E00764
S214010E50E007E007E007E007E007E007E007E00754
S214010E60E007E007E00700000000000000000000C7
S214010E70000000000000000000000000000000006C
S214010E80000000000000000000000000000000005C
S214010E90000000000000000000000000000000004C
S214010EA0000000000000000000000000000000003C
S214010EB0000000000000000000000000000000002C
S214010EC0000000000000000000000000000000001C
S214010ED0000000000000000000000000000000000C
S214010EE000000000000000000000000000000000FC
S214010EF000000000000000000000000000000000EC
S214010F0000000000000000000000000000000000DB
S214010F1000000000000000000000000000000000CB
S214010F2000000000000000000000000000000000BB
S214010F3000000000000000000000000000000000AB
S214010F40000000000000000000000000000000009B
S214010F50000000000000000000000000000000008B
S214010F60000000000000000000000000000000007B
S214010F70000000000000000000000000000000006B
S214010F80000000000000000000000000000000005B
S214010F90000000000000000000000000000000004B
S214010FA0000000000000000000000000000000003B
S214010FB0000000000000000000000000000000002B
S214010FC0000000000000000000000000000000001B
S214010FD0000000000000000000000000000000000B
S214010FE000000000000000000000000000000000FB
S214010FF000000000E007E007E007E007E007E00781
S214011000E007E007E007E007E007E007E007E007A2
S214011010E007E007E007E007E00700000000000047
S21401102000000000000000000000000000000000BA
S21401103000000000000000000000000000000000AA
S214011040000000000000000000000000000000009A
S214011050000000000000000000000000000000008A
S214011060000000000000000000000000000000007A
S214011070000000000000000000000000000000006A
S214011080000000000000000000000000000000005A
S214011090000000000000000000000000000000004A
S2140110A0000000000000000000000000000000003A
S2140110B0000000000000000000000000000000002A
S2140110C0E007E007E007E007E007E007E007E007E2
S2140110D0E007E007E007E007E007E007E007E007D2
S2140110E0E007E007E0070000000000000000000045
S2140110F000000000000000000000000000000000EA
S21401110000000000000000000000000000000000D9
S21401111000000000000000000000000000000000C9
S21401112000000000000000000000000000000000B9
S21401113000000000000000000000000000000000A9
S2140111400000000000000000000000000000000099
S2140111500000000000000000000000000000000089
S2140111600000000000000000000000000000000079
S2140111700000000000000000000000000000000069
S2140111800000000000000000000000000000000059
S2140111900000000000000000000000000000000049
S2140111A00000000000000000000000000000000039
S2140111B00000000000000000000000000000000029
S2140111C00000000000000000000000000000000019
S2140111D00000000000000000000000000000000009
S2140111E000000000000000000000000000000000F9
S2140111F000000000000000000000000000000000E9
S21401120000000000000000000000000000000000D8
S21401121000000000000000000000000000000000C8
S21401122000000000000000000000000000000000B8
S21401123000000000000000000000000000000000A8
S2140112400000000000000000000000000000000098
S2140112500000000000000000000000000000000088
S2140112600000000000000000000000000000000078
S21401127000000000E007E007E007E007E007E007FE
S214011280E007E007E007E007E007E007E007E00720
S214011290E007E007E007E007E007000000000000C5
S2140112A00000000000000000000000000000000038
S2140112B00000000000000000000000000000000028
S2140112C00000000000000000000000000000000018
S2140112D00000000000000000000000000000000008
S2140112E000000000000000000000000000000000F8
S2140112F000000000000000000000000000000000E8
S21401130000000000000000000000000000000000D7
S21401131000000000000000000000000000000000C7
S21401132000000000000000000000000000000000B7
S21401133000000000000000000000000000000000A7
S214011340E007E007E007E007E007E007E007E0075F
S214011350E007E007E007E007E007E007E007E0074F
S214011360E007E007E00700000000000000000000C2
S2140113700000000000000000000000000000000067
S2140113800000000000000000000000000000000057
S2140113900000000000000000000000000000000047
S2140113A00000000000000000000000000000000037
S2140113B00000000000000000000000000000000027
S2140113C00000000000000000000000000000000017
S2140113D00000000000000000000000000000000007
S2140113E000000000000000000000000000000000F7
S2140113F000000000000000000000000000000000E7
S21401140000000000000000000000000000000000D6
S21401141000000000000000000000000000000000C6
S21401142000000000000000000000000000000000B6
S21401143000000000000000000000000000000000A6
S2140114400000000000000000000000000000000096
S2140114500000000000000000000000000000000086
S2140114600000000000000000000000000000000076
S2140114700000000000000000000000000000000066
S2140114800000000000000000000000000000000056
S2140114900000000000000000000000000000000046
S2140114A00000000000000000000000000000000036
S2140114B00000000000000000000000000000000026
S2140114C00000000000000000000000000000000016
S2140114D00000000000000000000000000000000006
S2140114E000000000000000000000000000000000F6
S2140114F000000000E007E007E007E007E007E0077C
S214011500E007E007E007E007E007E007E007E0079D
S214011510E007E007E007E007E00700000000000042
S21401152000000000000000000000000000000000B5
S21401153000000000000000000000000000000000A5
S2140115400000000000000000000000000000000095
S2140115500000000000000000000000000000000085
S2140115600000000000000000000000000000000075
S2140115700000000000000000000000000000000065
S2140115800000000000000000000000000000000055
S2140115900000000000000000000000000000000045
S2140115A00000000000000000000000000000000035
S2140115B00000000000000000000000000000000025
S2140115C0E007E007E007E007E007E007E007E007DD
S2140115D0E007E007E007E007E007E007E007E007CD
S2140115E0E007E007E0070000000000000000000040
S2140115F000000000000000000000000000000000E5
S21401160000000000000000000000000000000000D4
S21401161000000000000000000000000000000000C4
S21401162000000000000000000000000000000000B4
S21401163000000000000000000000000000000000A4
S2140116400000000000000000000000000000000094
S2140116500000000000000000000000000000000084
S2140116600000000000000000000000000000000074
S2140116700000000000000000000000000000000064
S2140116800000000000000000000000000000000054
S2140116900000000000000000000000000000000044
S2140116A00000000000000000000000000000000034
S2140116B00000000000000000000000000000000024
S2140116C00000000000000000000000000000000014
S2140116D00000000000000000000000000000000004
S2140116E000000000000000000000000000000000F4
S2140116F000000000000000000000000000000000E4
S21401170000000000000000000000000000000000D3
S21401171000000000000000000000000000000000C3
S21401172000000000000000000000000000000000B3
S21401173000000000000000000000000000000000A3
S2140117400000000000000000000000000000000093
S2140117500000000000000000000000000000000083
S2140117600000000000000000000000000000000073
S21401177000000000E007E007E007E007E007E007F9
S214011780E007E007E007E007E007E007E007E0071B
S214011790E007E007E007E007E007000000000000C0
S2140117A00000000000000000000000000000000033
S2140117B00000000000000000000000000000000023
S2140117C00000000000000000000000000000000013
S2140117D00000000000000000000000000000000003
S2140117E000000000000000000000000000000000F3
S2140117F000000000000000000000000000000000E3
S21401180000000000000000000000000000000000D2
S21401181000000000000000000000000000000000C2
S21401182000000000000000000000000000000000B2
S21401183000000000000000000000000000000000A2
S214011840E007E007E007E007E007E007E007E0075A
S214011850E007E007E007E007E007E007E007E0074A
S214011860E007E007E00700000000000000000000BD
S2140118700000000000000000000000000000000062
S2140118800000000000000000000000000000000052
S2140118900000000000000000000000000000000042
S2140118A00000000000000000000000000000000032
S2140118B00000000000000000000000000000000022
S2140118C00000000000000000000000000000000012
S2140118D00000000000000000000000000000000002
S2140118E000000000000000000000000000000000F2
S2140118F000000000000000000000000000000000E2
S21401190000000000000000000000000000000000D1
S21401191000000000000000000000000000000000C1
S21401192000000000000000000000000000000000B1
S21401193000000000000000000000000000000000A1
S2140119400000000000000000000000000000000091
S2140119500000000000000000000000000000000081
S2140119600000000000000000000000000000000071
S2140119700000000000000000000000000000000061
S2140119800000000000000000000000000000000051
S2140119900000000000000000000000000000000041
S2140119A00000000000000000000000000000000031
S2140119B00000000000000000000000000000000021
S2140119C00000000000000000000000000000000011
S2140119D00000000000000000000000000000000001
S2140119E000000000000000000000000000000000F1
S2140119F000000000E007E007E007E007E007E00777
S214011A00E007E007E007E007E007E007E007E00798
S214011A10E007E007E007E007E0070000000000003D
S214011A2000000000000000000000000000000000B0
S214011A3000000000000000000000000000000000A0
S214011A400000000000000000000000000000000090
S214011A500000000000000000000000000000000080
S214011A600000000000000000000000000000000070
S214011A700000000000000000000000000000000060
S214011A800000000000000000000000000000000050
S214011A900000000000000000000000000000000040
S214011AA00000000000000000000000000000000030
S214011AB00000000000000000000000000000000020
S214011AC0E007E007E007E007E007E007E007E007D8
S214011AD0E007E007E007E007E007E007E007E007C8
S214011AE0E007E007E007000000000000000000003B
S214011AF000000000000000000000000000000000E0
S214011B0000000000000000000000000000000000CF
S214011B1000000000000000000000000000000000BF
S214011B2000000000000000000000000000000000AF
S214011B30000000000000000000000000000000009F
S214011B40000000000000000000000000000000008F
S214011B50000000000000000000000000000000007F
S214011B60000000000000000000000000000000006F
S214011B70000000000000000000000000000000005F
S214011B80000000000000000000000000000000004F
S214011B90000000000000000000000000000000003F
S214011BA0000000000000000000000000000000002F
S214011BB0000000000000000000000000000000001F
S214011BC0000000000000000000000000000000000F
S214011BD000000000000000000000000000000000FF
S214011BE000000000000000000000000000000000EF
S214011BF000000000000000000000000000000000DF
S214011C0000000000000000000000000000000000CE
S214011C1000000000000000000000000000000000BE
S214011C2000000000000000000000000000000000AE
S214011C30000000000000000000000000000000009E
S214011C40000000000000000000000000000000008E
S214011C50000000000000000000000000000000007E
S214011C60000000000000000000000000000000006E
S214011C700000E007E007E007E007E007E007E0070D
S214011C80E007E007E007E007E007E007E007E00716
S214011C90E007E007E007E007E007000000000000BB
S214011CA0000000000000000000000000000000002E
S214011CB0000000000000000000000000000000001E
S214011CC0000000000000000000000000000000000E
S214011CD000000000000000000000000000000000FE
S214011CE000000000000000000000000000000000EE
S214011CF000000000000000000000000000000000DE
S214011D0000000000000000000000000000000000CD
S214011D1000000000000000000000000000000000BD
S214011D2000000000000000000000000000000000AD
S214011D30000000000000000000000000000000009D
S214011D40E007E007E007E007E007E007E007E00755
S214011D50E007E007E007E007E007E007E007E00745
S214011D60E007E007E00700000000000000000000B8
S214011D70000000000000000000000000000000005D
S214011D80000000000000000000000000000000004D
S214011D90000000000000000000000000000000003D
S214011DA0000000000000000000000000000000002D
S214011DB0000000000000000000000000000000001D
S214011DC0000000000000000000000000000000000D
S214011DD000000000000000000000000000000000FD
S214011DE000000000000000000000000000000000ED
S214011DF000000000000000000000000000000000DD
S214011E0000000000000000000000000000000000CC
S214011E1000000000000000000000000000000000BC
S214011E2000000000000000000000000000000000AC
S214011E30000000000000000000000000000000009C
S214011E40000000000000000000000000000000008C
S214011E50000000000000000000000000000000007C
S214011E60000000000000000000000000000000006C
S214011E70000000000000000000000000000000005C
S214011E80000000000000000000000000000000004C
S214011E90000000000000000000000000000000003C
S214011EA0000000000000000000000000000000002C
S214011EB0000000000000000000000000000000001C
S214011EC0000000000000000000000000000000000C
S214011ED000000000000000000000000000000000FC
S214011EE000000000000000000000000000000000EC
S214011EF00000E007E007E007E007E007E007E0078B
S214011F00E007E007E007E007E007E007E007E00793
S214011F10E007E007E007E007E00700000000000038
S214011F2000000000000000000000000000000000AB
S214011F30000000000000000000000000000000009B
S214011F40000000000000000000000000000000008B
S214011F50000000000000000000000000000000007B
S214011F60000000000000000000000000000000006B
S214011F70000000000000000000000000000000005B
S214011F80000000000000000000000000000000004B
S214011F90000000000000000000000000000000003B
S214011FA0000000000000000000000000000000002B
S214011FB0000000000000000000000000000000001B
S214011FC0E007E007E007E007E007E007E007E007D3
S214011FD0E007E007E007E007E007E007E007E007C3
S214011FE0E007E007E0070000000000000000000036
S214011FF000000000000000000000000000000000DB
S21401200000000000000000000000000000000000CA
S21401201000000000000000000000000000000000BA
S21401202000000000000000000000000000000000AA
S214012030000000000000000000000000000000009A
S214012040000000000000000000000000000000008A
S214012050000000000000000000000000000000007A
S214012060000000000000000000000000000000006A
S214012070000000000000000000000000000000005A
S214012080000000000000000000000000000000004A
S214012090000000000000000000000000000000003A
S2140120A0000000000000000000000000000000002A
S2140120B0000000000000000000000000000000001A
S2140120C0000000000000000000000000000000000A
S2140120D000000000000000000000000000000000FA
S2140120E000000000000000000000000000000000EA
S2140120F000000000000000000000000000000000DA
S21401210000000000000000000000000000000000C9
S21401211000000000000000000000000000000000B9
S21401212000000000000000000000000000000000A9
S2140121300000000000000000000000000000000099
S2140121400000000000000000000000000000000089
S2140121500000000000000000000000000000000079
S2140121600000000000000000000000000000000069
S2140121700000E007E007E007E007E007E007E00708
S214012180E007E007E007E007E007E007E007E00711
